{
  "_format": "hh-sol-artifact-1",
  "contractName": "Cryptojua",
  "sourceName": "contracts/CryptoJua.sol",
  "abi": [
    {
      "anonymous": false,
      "inputs": [
        {
          "indexed": false,
          "internalType": "uint256",
          "name": "serviceId",
          "type": "uint256"
        },
        {
          "indexed": false,
          "internalType": "string",
          "name": "serviceName",
          "type": "string"
        },
        {
          "indexed": false,
          "internalType": "string",
          "name": "serviceDescription",
          "type": "string"
        }
      ],
      "name": "ServiceCreated",
      "type": "event"
    },
    {
      "anonymous": false,
      "inputs": [
        {
          "indexed": false,
          "internalType": "uint256",
          "name": "serviceId",
          "type": "uint256"
        }
      ],
      "name": "ServiceDeleted",
      "type": "event"
    },
    {
      "anonymous": false,
      "inputs": [
        {
          "indexed": false,
          "internalType": "uint256",
          "name": "serviceId",
          "type": "uint256"
        },
        {
          "indexed": false,
          "internalType": "string",
          "name": "serviceName",
          "type": "string"
        },
        {
          "indexed": false,
          "internalType": "string",
          "name": "serviceDescription",
          "type": "string"
        }
      ],
      "name": "ServiceUpdated",
      "type": "event"
    },
    {
      "anonymous": false,
      "inputs": [
        {
          "indexed": false,
          "internalType": "uint256",
          "name": "serviceId",
          "type": "uint256"
        },
        {
          "indexed": false,
          "internalType": "address",
          "name": "subscriber",
          "type": "address"
        }
      ],
      "name": "SubscriberAdded",
      "type": "event"
    },
    {
      "inputs": [
        {
          "internalType": "uint256",
          "name": "_serviceId",
          "type": "uint256"
        },
        {
          "internalType": "address",
          "name": "_subscriber",
          "type": "address"
        }
      ],
      "name": "addSubscriber",
      "outputs": [],
      "stateMutability": "nonpayable",
      "type": "function"
    },
    {
      "inputs": [
        {
          "internalType": "string",
          "name": "_serviceName",
          "type": "string"
        },
        {
          "internalType": "string",
          "name": "_serviceDescription",
          "type": "string"
        }
      ],
      "name": "createService",
      "outputs": [],
      "stateMutability": "nonpayable",
      "type": "function"
    },
    {
      "inputs": [
        {
          "internalType": "uint256",
          "name": "_serviceId",
          "type": "uint256"
        }
      ],
      "name": "deleteService",
      "outputs": [],
      "stateMutability": "nonpayable",
      "type": "function"
    },
    {
      "inputs": [
        {
          "internalType": "uint256",
          "name": "_serviceId",
          "type": "uint256"
        }
      ],
      "name": "getService",
      "outputs": [
        {
          "components": [
            {
              "internalType": "uint256",
              "name": "service_id",
              "type": "uint256"
            },
            {
              "internalType": "string",
              "name": "service_name",
              "type": "string"
            },
            {
              "internalType": "string",
              "name": "service_description",
              "type": "string"
            },
            {
              "internalType": "address[]",
              "name": "subscribers",
              "type": "address[]"
            }
          ],
          "internalType": "struct Cryptojua.Service",
          "name": "",
          "type": "tuple"
        }
      ],
      "stateMutability": "view",
      "type": "function"
    },
    {
      "inputs": [
        {
          "internalType": "uint256",
          "name": "_serviceId",
          "type": "uint256"
        }
      ],
      "name": "getSubscribers",
      "outputs": [
        {
          "internalType": "address[]",
          "name": "",
          "type": "address[]"
        }
      ],
      "stateMutability": "view",
      "type": "function"
    },
    {
      "inputs": [
        {
          "internalType": "uint256",
          "name": "",
          "type": "uint256"
        }
      ],
      "name": "services",
      "outputs": [
        {
          "internalType": "uint256",
          "name": "service_id",
          "type": "uint256"
        },
        {
          "internalType": "string",
          "name": "service_name",
          "type": "string"
        },
        {
          "internalType": "string",
          "name": "service_description",
          "type": "string"
        }
      ],
      "stateMutability": "view",
      "type": "function"
    },
    {
      "inputs": [
        {
          "internalType": "uint256",
          "name": "_serviceId",
          "type": "uint256"
        },
        {
          "internalType": "string",
          "name": "_newServiceName",
          "type": "string"
        },
        {
          "internalType": "string",
          "name": "_newServiceDescription",
          "type": "string"
        }
      ],
      "name": "updateService",
      "outputs": [],
      "stateMutability": "nonpayable",
      "type": "function"
    }
  ],
  "bytecode": "0x60806040526001805534801561001457600080fd5b50611284806100246000396000f3fe608060405234801561001057600080fd5b506004361061007d5760003560e01c80636a5e1f921161005b5780636a5e1f92146100ea57806374e29ee614610106578063c22c4f4314610122578063ef0e239b146101545761007d565b806330b183e6146100825780633b6058151461009e5780635b0aff5b146100ce575b600080fd5b61009c60048036038101906100979190610c12565b610184565b005b6100b860048036038101906100b39190610bad565b610271565b6040516100c59190610ec4565b60405180910390f35b6100e860048036038101906100e39190610bd6565b61036d565b005b61010460048036038101906100ff9190610b41565b610479565b005b610120600480360381019061011b9190610bad565b610528565b005b61013c60048036038101906101379190610bad565b610608565b60405161014b93929190610f6c565b60405180910390f35b61016e60048036038101906101699190610bad565b610742565b60405161017b9190610f06565b60405180910390f35b60008060008581526020019081526020016000206000015414156101dd576040517f08c379a00000000000000000000000000000000000000000000000000000000081526004016101d490610ee6565b60405180910390fd5b816000808581526020019081526020016000206001019080519060200190610206929190610983565b50806000808581526020019081526020016000206002019080519060200190610230929190610983565b507f25e2a87fb39b5d22e3042a655f5d07b51060087534097bbfed892ce62cb961f383838360405161026493929190610f6c565b60405180910390a1505050565b606060008060008481526020019081526020016000206000015414156102cc576040517f08c379a00000000000000000000000000000000000000000000000000000000081526004016102c390610ee6565b60405180910390fd5b60008083815260200190815260200160002060030180548060200260200160405190810160405280929190818152602001828054801561036157602002820191906000526020600020905b8160009054906101000a900473ffffffffffffffffffffffffffffffffffffffff1673ffffffffffffffffffffffffffffffffffffffff1681526020019060010190808311610317575b50505050509050919050565b60008060008481526020019081526020016000206000015414156103c6576040517f08c379a00000000000000000000000000000000000000000000000000000000081526004016103bd90610ee6565b60405180910390fd5b600080838152602001908152602001600020600301819080600181540180825580915050600190039060005260206000200160009091909190916101000a81548173ffffffffffffffffffffffffffffffffffffffff021916908373ffffffffffffffffffffffffffffffffffffffff1602179055507fd69e4819aaf40b268121004b835802d78268bd0024012cd2c9372c1ec9dc8ce7828260405161046d929190610f43565b60405180910390a15050565b6000806000600154815260200190815260200160002090506001548160000181905550828160010190805190602001906104b4929190610983565b50818160020190805190602001906104cd929190610983565b507f553e01dc062846cfc9cf13888315baaeb31f318907552a5718411bc2b7d2436e600154848460405161050393929190610f6c565b60405180910390a16001600081548092919061051e90611139565b9190505550505050565b6000806000838152602001908152602001600020600001541415610581576040517f08c379a000000000000000000000000000000000000000000000000000000000815260040161057890610ee6565b60405180910390fd5b6000808281526020019081526020016000206000808201600090556001820160006105ac9190610a09565b6002820160006105bc9190610a09565b6003820160006105cc9190610a49565b50507f67b317cc085fa4117eb8e57171167f7252535df3f9dfe52a4e08bee760a81eb2816040516105fd9190610f28565b60405180910390a150565b600060205280600052604060002060009150905080600001549080600101805461063190611107565b80601f016020809104026020016040519081016040528092919081815260200182805461065d90611107565b80156106aa5780601f1061067f576101008083540402835291602001916106aa565b820191906000526020600020905b81548152906001019060200180831161068d57829003601f168201915b5050505050908060020180546106bf90611107565b80601f01602080910402602001604051908101604052809291908181526020018280546106eb90611107565b80156107385780601f1061070d57610100808354040283529160200191610738565b820191906000526020600020905b81548152906001019060200180831161071b57829003601f168201915b5050505050905083565b61074a610a6a565b60008060008481526020019081526020016000206000015414156107a3576040517f08c379a000000000000000000000000000000000000000000000000000000000815260040161079a90610ee6565b60405180910390fd5b600080838152602001908152602001600020604051806080016040529081600082015481526020016001820180546107da90611107565b80601f016020809104026020016040519081016040528092919081815260200182805461080690611107565b80156108535780601f1061082857610100808354040283529160200191610853565b820191906000526020600020905b81548152906001019060200180831161083657829003601f168201915b5050505050815260200160028201805461086c90611107565b80601f016020809104026020016040519081016040528092919081815260200182805461089890611107565b80156108e55780601f106108ba576101008083540402835291602001916108e5565b820191906000526020600020905b8154815290600101906020018083116108c857829003601f168201915b505050505081526020016003820180548060200260200160405190810160405280929190818152602001828054801561097357602002820191906000526020600020905b8160009054906101000a900473ffffffffffffffffffffffffffffffffffffffff1673ffffffffffffffffffffffffffffffffffffffff1681526020019060010190808311610929575b5050505050815250509050919050565b82805461098f90611107565b90600052602060002090601f0160209004810192826109b157600085556109f8565b82601f106109ca57805160ff19168380011785556109f8565b828001600101855582156109f8579182015b828111156109f75782518255916020019190600101906109dc565b5b509050610a059190610a92565b5090565b508054610a1590611107565b6000825580601f10610a275750610a46565b601f016020900490600052602060002090810190610a459190610a92565b5b50565b5080546000825590600052602060002090810190610a679190610a92565b50565b6040518060800160405280600081526020016060815260200160608152602001606081525090565b5b80821115610aab576000816000905550600101610a93565b5090565b6000610ac2610abd84610fe2565b610fb1565b905082815260208101848484011115610ada57600080fd5b610ae58482856110c5565b509392505050565b600081359050610afc81611220565b92915050565b600082601f830112610b1357600080fd5b8135610b23848260208601610aaf565b91505092915050565b600081359050610b3b81611237565b92915050565b60008060408385031215610b5457600080fd5b600083013567ffffffffffffffff811115610b6e57600080fd5b610b7a85828601610b02565b925050602083013567ffffffffffffffff811115610b9757600080fd5b610ba385828601610b02565b9150509250929050565b600060208284031215610bbf57600080fd5b6000610bcd84828501610b2c565b91505092915050565b60008060408385031215610be957600080fd5b6000610bf785828601610b2c565b9250506020610c0885828601610aed565b9150509250929050565b600080600060608486031215610c2757600080fd5b6000610c3586828701610b2c565b935050602084013567ffffffffffffffff811115610c5257600080fd5b610c5e86828701610b02565b925050604084013567ffffffffffffffff811115610c7b57600080fd5b610c8786828701610b02565b9150509250925092565b6000610c9d8383610ca9565b60208301905092915050565b610cb281611089565b82525050565b610cc181611089565b82525050565b6000610cd282611022565b610cdc8185611045565b9350610ce783611012565b8060005b83811015610d18578151610cff8882610c91565b9750610d0a83611038565b925050600181019050610ceb565b5085935050505092915050565b6000610d3082611022565b610d3a8185611056565b9350610d4583611012565b8060005b83811015610d76578151610d5d8882610c91565b9750610d6883611038565b925050600181019050610d49565b5085935050505092915050565b6000610d8e8261102d565b610d988185611067565b9350610da88185602086016110d4565b610db18161120f565b840191505092915050565b6000610dc78261102d565b610dd18185611078565b9350610de18185602086016110d4565b610dea8161120f565b840191505092915050565b6000610e02601783611078565b91507f5365727669636520646f6573206e6f742065786973742e0000000000000000006000830152602082019050919050565b6000608083016000830151610e4d6000860182610ea6565b5060208301518482036020860152610e658282610d83565b91505060408301518482036040860152610e7f8282610d83565b91505060608301518482036060860152610e998282610cc7565b9150508091505092915050565b610eaf816110bb565b82525050565b610ebe816110bb565b82525050565b60006020820190508181036000830152610ede8184610d25565b905092915050565b60006020820190508181036000830152610eff81610df5565b9050919050565b60006020820190508181036000830152610f208184610e35565b905092915050565b6000602082019050610f3d6000830184610eb5565b92915050565b6000604082019050610f586000830185610eb5565b610f656020830184610cb8565b9392505050565b6000606082019050610f816000830186610eb5565b8181036020830152610f938185610dbc565b90508181036040830152610fa78184610dbc565b9050949350505050565b6000604051905081810181811067ffffffffffffffff82111715610fd857610fd76111e0565b5b8060405250919050565b600067ffffffffffffffff821115610ffd57610ffc6111e0565b5b601f19601f8301169050602081019050919050565b6000819050602082019050919050565b600081519050919050565b600081519050919050565b6000602082019050919050565b600082825260208201905092915050565b600082825260208201905092915050565b600082825260208201905092915050565b600082825260208201905092915050565b60006110948261109b565b9050919050565b600073ffffffffffffffffffffffffffffffffffffffff82169050919050565b6000819050919050565b82818337600083830152505050565b60005b838110156110f25780820151818401526020810190506110d7565b83811115611101576000848401525b50505050565b6000600282049050600182168061111f57607f821691505b60208210811415611133576111326111b1565b5b50919050565b6000611144826110bb565b91507fffffffffffffffffffffffffffffffffffffffffffffffffffffffffffffffff82141561117757611176611182565b5b600182019050919050565b7f4e487b7100000000000000000000000000000000000000000000000000000000600052601160045260246000fd5b7f4e487b7100000000000000000000000000000000000000000000000000000000600052602260045260246000fd5b7f4e487b7100000000000000000000000000000000000000000000000000000000600052604160045260246000fd5b6000601f19601f8301169050919050565b61122981611089565b811461123457600080fd5b50565b611240816110bb565b811461124b57600080fd5b5056fea264697066735822122088d3cf14ad915c17ea1dea3a98e9e6d8805ead3cc38119feb99270895ff307b864736f6c63430008000033",
  "linkReferences": {},
  "deployedLinkReferences": {}
}